{
  "contractName": "TescoExpiryTracker",
  "abi": [
    {
      "inputs": [],
      "stateMutability": "nonpayable",
      "type": "constructor"
    },
    {
      "anonymous": false,
      "inputs": [
        {
          "indexed": true,
          "internalType": "address",
          "name": "by",
          "type": "address"
        },
        {
          "indexed": false,
          "internalType": "uint256",
          "name": "amount",
          "type": "uint256"
        }
      ],
      "name": "ContractFunded",
      "type": "event"
    },
    {
      "anonymous": false,
      "inputs": [
        {
          "indexed": true,
          "internalType": "uint256",
          "name": "id",
          "type": "uint256"
        },
        {
          "indexed": false,
          "internalType": "string",
          "name": "productName",
          "type": "string"
        },
        {
          "indexed": false,
          "internalType": "string",
          "name": "sku",
          "type": "string"
        },
        {
          "indexed": false,
          "internalType": "uint256",
          "name": "expiryDate",
          "type": "uint256"
        },
        {
          "indexed": true,
          "internalType": "address",
          "name": "addedBy",
          "type": "address"
        }
      ],
      "name": "ProductAdded",
      "type": "event"
    },
    {
      "anonymous": false,
      "inputs": [
        {
          "indexed": true,
          "internalType": "uint256",
          "name": "id",
          "type": "uint256"
        },
        {
          "indexed": false,
          "internalType": "string",
          "name": "reason",
          "type": "string"
        },
        {
          "indexed": true,
          "internalType": "address",
          "name": "recalledBy",
          "type": "address"
        }
      ],
      "name": "ProductRecalled",
      "type": "event"
    },
    {
      "anonymous": false,
      "inputs": [
        {
          "indexed": true,
          "internalType": "address",
          "name": "staff",
          "type": "address"
        }
      ],
      "name": "StaffAuthorised",
      "type": "event"
    },
    {
      "anonymous": false,
      "inputs": [
        {
          "indexed": true,
          "internalType": "address",
          "name": "staff",
          "type": "address"
        }
      ],
      "name": "StaffRevoked",
      "type": "event"
    },
    {
      "anonymous": false,
      "inputs": [
        {
          "indexed": true,
          "internalType": "uint256",
          "name": "productId",
          "type": "uint256"
        },
        {
          "indexed": false,
          "internalType": "string",
          "name": "alertType",
          "type": "string"
        },
        {
          "indexed": false,
          "internalType": "string",
          "name": "message",
          "type": "string"
        }
      ],
      "name": "StockAlertRaised",
      "type": "event"
    },
    {
      "anonymous": false,
      "inputs": [
        {
          "indexed": true,
          "internalType": "uint256",
          "name": "productId",
          "type": "uint256"
        },
        {
          "indexed": true,
          "internalType": "address",
          "name": "supplierWallet",
          "type": "address"
        },
        {
          "indexed": false,
          "internalType": "uint256",
          "name": "amount",
          "type": "uint256"
        }
      ],
      "name": "SupplierPaid",
      "type": "event"
    },
    {
      "inputs": [
        {
          "internalType": "uint256",
          "name": "",
          "type": "uint256"
        }
      ],
      "name": "allProductIds",
      "outputs": [
        {
          "internalType": "uint256",
          "name": "",
          "type": "uint256"
        }
      ],
      "stateMutability": "view",
      "type": "function",
      "constant": true
    },
    {
      "inputs": [
        {
          "internalType": "address",
          "name": "",
          "type": "address"
        }
      ],
      "name": "authorisedStaff",
      "outputs": [
        {
          "internalType": "bool",
          "name": "",
          "type": "bool"
        }
      ],
      "stateMutability": "view",
      "type": "function",
      "constant": true
    },
    {
      "inputs": [
        {
          "internalType": "string",
          "name": "",
          "type": "string"
        },
        {
          "internalType": "uint256",
          "name": "",
          "type": "uint256"
        }
      ],
      "name": "categoryToProductIds",
      "outputs": [
        {
          "internalType": "uint256",
          "name": "",
          "type": "uint256"
        }
      ],
      "stateMutability": "view",
      "type": "function",
      "constant": true
    },
    {
      "inputs": [],
      "name": "owner",
      "outputs": [
        {
          "internalType": "address",
          "name": "",
          "type": "address"
        }
      ],
      "stateMutability": "view",
      "type": "function",
      "constant": true
    },
    {
      "inputs": [],
      "name": "paymentPerBatch",
      "outputs": [
        {
          "internalType": "uint256",
          "name": "",
          "type": "uint256"
        }
      ],
      "stateMutability": "view",
      "type": "function",
      "constant": true
    },
    {
      "inputs": [
        {
          "internalType": "uint256",
          "name": "",
          "type": "uint256"
        }
      ],
      "name": "products",
      "outputs": [
        {
          "internalType": "uint256",
          "name": "id",
          "type": "uint256"
        },
        {
          "internalType": "string",
          "name": "productName",
          "type": "string"
        },
        {
          "internalType": "string",
          "name": "sku",
          "type": "string"
        },
        {
          "internalType": "string",
          "name": "batchNumber",
          "type": "string"
        },
        {
          "internalType": "string",
          "name": "category",
          "type": "string"
        },
        {
          "internalType": "string",
          "name": "supplier",
          "type": "string"
        },
        {
          "internalType": "address",
          "name": "supplierWallet",
          "type": "address"
        },
        {
          "internalType": "uint256",
          "name": "harvestDate",
          "type": "uint256"
        },
        {
          "internalType": "uint256",
          "name": "packagingDate",
          "type": "uint256"
        },
        {
          "internalType": "uint256",
          "name": "expiryDate",
          "type": "uint256"
        },
        {
          "internalType": "uint256",
          "name": "addedAt",
          "type": "uint256"
        },
        {
          "internalType": "address",
          "name": "addedBy",
          "type": "address"
        },
        {
          "internalType": "bool",
          "name": "isRecalled",
          "type": "bool"
        },
        {
          "internalType": "string",
          "name": "recallReason",
          "type": "string"
        },
        {
          "internalType": "uint256",
          "name": "paymentSent",
          "type": "uint256"
        }
      ],
      "stateMutability": "view",
      "type": "function",
      "constant": true
    },
    {
      "inputs": [
        {
          "internalType": "string",
          "name": "",
          "type": "string"
        },
        {
          "internalType": "uint256",
          "name": "",
          "type": "uint256"
        }
      ],
      "name": "skuToProductIds",
      "outputs": [
        {
          "internalType": "uint256",
          "name": "",
          "type": "uint256"
        }
      ],
      "stateMutability": "view",
      "type": "function",
      "constant": true
    },
    {
      "inputs": [
        {
          "internalType": "uint256",
          "name": "",
          "type": "uint256"
        }
      ],
      "name": "stockAlerts",
      "outputs": [
        {
          "internalType": "uint256",
          "name": "productId",
          "type": "uint256"
        },
        {
          "internalType": "string",
          "name": "alertType",
          "type": "string"
        },
        {
          "internalType": "string",
          "name": "message",
          "type": "string"
        },
        {
          "internalType": "uint256",
          "name": "raisedAt",
          "type": "uint256"
        },
        {
          "internalType": "address",
          "name": "raisedBy",
          "type": "address"
        }
      ],
      "stateMutability": "view",
      "type": "function",
      "constant": true
    },
    {
      "inputs": [],
      "name": "totalPaidToSuppliers",
      "outputs": [
        {
          "internalType": "uint256",
          "name": "",
          "type": "uint256"
        }
      ],
      "stateMutability": "view",
      "type": "function",
      "constant": true
    },
    {
      "stateMutability": "payable",
      "type": "receive",
      "payable": true
    },
    {
      "inputs": [],
      "name": "fundContract",
      "outputs": [],
      "stateMutability": "payable",
      "type": "function",
      "payable": true
    },
    {
      "inputs": [
        {
          "internalType": "uint256",
          "name": "_amount",
          "type": "uint256"
        }
      ],
      "name": "setPaymentPerBatch",
      "outputs": [],
      "stateMutability": "nonpayable",
      "type": "function"
    },
    {
      "inputs": [
        {
          "internalType": "uint256",
          "name": "_amount",
          "type": "uint256"
        }
      ],
      "name": "withdrawFunds",
      "outputs": [],
      "stateMutability": "nonpayable",
      "type": "function"
    },
    {
      "inputs": [],
      "name": "getContractBalance",
      "outputs": [
        {
          "internalType": "uint256",
          "name": "",
          "type": "uint256"
        }
      ],
      "stateMutability": "view",
      "type": "function",
      "constant": true
    },
    {
      "inputs": [
        {
          "internalType": "address",
          "name": "_staff",
          "type": "address"
        }
      ],
      "name": "authoriseStaff",
      "outputs": [],
      "stateMutability": "nonpayable",
      "type": "function"
    },
    {
      "inputs": [
        {
          "internalType": "address",
          "name": "_staff",
          "type": "address"
        }
      ],
      "name": "revokeStaff",
      "outputs": [],
      "stateMutability": "nonpayable",
      "type": "function"
    },
    {
      "inputs": [
        {
          "internalType": "string",
          "name": "_productName",
          "type": "string"
        },
        {
          "internalType": "string",
          "name": "_sku",
          "type": "string"
        },
        {
          "internalType": "string",
          "name": "_batchNumber",
          "type": "string"
        },
        {
          "internalType": "string",
          "name": "_category",
          "type": "string"
        },
        {
          "internalType": "string",
          "name": "_supplier",
          "type": "string"
        },
        {
          "internalType": "address",
          "name": "_supplierWallet",
          "type": "address"
        },
        {
          "internalType": "uint256",
          "name": "_harvestDate",
          "type": "uint256"
        },
        {
          "internalType": "uint256",
          "name": "_packagingDate",
          "type": "uint256"
        },
        {
          "internalType": "uint256",
          "name": "_expiryDate",
          "type": "uint256"
        }
      ],
      "name": "addProduct",
      "outputs": [
        {
          "internalType": "uint256",
          "name": "id",
          "type": "uint256"
        }
      ],
      "stateMutability": "nonpayable",
      "type": "function"
    },
    {
      "inputs": [
        {
          "internalType": "uint256",
          "name": "_id",
          "type": "uint256"
        },
        {
          "internalType": "string",
          "name": "_reason",
          "type": "string"
        }
      ],
      "name": "recallProduct",
      "outputs": [],
      "stateMutability": "nonpayable",
      "type": "function"
    },
    {
      "inputs": [
        {
          "internalType": "uint256",
          "name": "_id",
          "type": "uint256"
        }
      ],
      "name": "getProduct",
      "outputs": [
        {
          "components": [
            {
              "internalType": "uint256",
              "name": "id",
              "type": "uint256"
            },
            {
              "internalType": "string",
              "name": "productName",
              "type": "string"
            },
            {
              "internalType": "string",
              "name": "sku",
              "type": "string"
            },
            {
              "internalType": "string",
              "name": "batchNumber",
              "type": "string"
            },
            {
              "internalType": "string",
              "name": "category",
              "type": "string"
            },
            {
              "internalType": "string",
              "name": "supplier",
              "type": "string"
            },
            {
              "internalType": "address",
              "name": "supplierWallet",
              "type": "address"
            },
            {
              "internalType": "uint256",
              "name": "harvestDate",
              "type": "uint256"
            },
            {
              "internalType": "uint256",
              "name": "packagingDate",
              "type": "uint256"
            },
            {
              "internalType": "uint256",
              "name": "expiryDate",
              "type": "uint256"
            },
            {
              "internalType": "uint256",
              "name": "addedAt",
              "type": "uint256"
            },
            {
              "internalType": "address",
              "name": "addedBy",
              "type": "address"
            },
            {
              "internalType": "bool",
              "name": "isRecalled",
              "type": "bool"
            },
            {
              "internalType": "string",
              "name": "recallReason",
              "type": "string"
            },
            {
              "internalType": "uint256",
              "name": "paymentSent",
              "type": "uint256"
            }
          ],
          "internalType": "struct TescoExpiryTracker.VegetableProduct",
          "name": "",
          "type": "tuple"
        }
      ],
      "stateMutability": "view",
      "type": "function",
      "constant": true
    },
    {
      "inputs": [
        {
          "internalType": "uint256",
          "name": "_from",
          "type": "uint256"
        },
        {
          "internalType": "uint256",
          "name": "_count",
          "type": "uint256"
        }
      ],
      "name": "getProducts",
      "outputs": [
        {
          "components": [
            {
              "internalType": "uint256",
              "name": "id",
              "type": "uint256"
            },
            {
              "internalType": "string",
              "name": "productName",
              "type": "string"
            },
            {
              "internalType": "string",
              "name": "sku",
              "type": "string"
            },
            {
              "internalType": "string",
              "name": "batchNumber",
              "type": "string"
            },
            {
              "internalType": "string",
              "name": "category",
              "type": "string"
            },
            {
              "internalType": "string",
              "name": "supplier",
              "type": "string"
            },
            {
              "internalType": "address",
              "name": "supplierWallet",
              "type": "address"
            },
            {
              "internalType": "uint256",
              "name": "harvestDate",
              "type": "uint256"
            },
            {
              "internalType": "uint256",
              "name": "packagingDate",
              "type": "uint256"
            },
            {
              "internalType": "uint256",
              "name": "expiryDate",
              "type": "uint256"
            },
            {
              "internalType": "uint256",
              "name": "addedAt",
              "type": "uint256"
            },
            {
              "internalType": "address",
              "name": "addedBy",
              "type": "address"
            },
            {
              "internalType": "bool",
              "name": "isRecalled",
              "type": "bool"
            },
            {
              "internalType": "string",
              "name": "recallReason",
              "type": "string"
            },
            {
              "internalType": "uint256",
              "name": "paymentSent",
              "type": "uint256"
            }
          ],
          "internalType": "struct TescoExpiryTracker.VegetableProduct[]",
          "name": "",
          "type": "tuple[]"
        }
      ],
      "stateMutability": "view",
      "type": "function",
      "constant": true
    },
    {
      "inputs": [
        {
          "internalType": "uint256",
          "name": "_withinSeconds",
          "type": "uint256"
        }
      ],
      "name": "getProductsExpiringSoon",
      "outputs": [
        {
          "components": [
            {
              "internalType": "uint256",
              "name": "id",
              "type": "uint256"
            },
            {
              "internalType": "string",
              "name": "productName",
              "type": "string"
            },
            {
              "internalType": "string",
              "name": "sku",
              "type": "string"
            },
            {
              "internalType": "string",
              "name": "batchNumber",
              "type": "string"
            },
            {
              "internalType": "string",
              "name": "category",
              "type": "string"
            },
            {
              "internalType": "string",
              "name": "supplier",
              "type": "string"
            },
            {
              "internalType": "address",
              "name": "supplierWallet",
              "type": "address"
            },
            {
              "internalType": "uint256",
              "name": "harvestDate",
              "type": "uint256"
            },
            {
              "internalType": "uint256",
              "name": "packagingDate",
              "type": "uint256"
            },
            {
              "internalType": "uint256",
              "name": "expiryDate",
              "type": "uint256"
            },
            {
              "internalType": "uint256",
              "name": "addedAt",
              "type": "uint256"
            },
            {
              "internalType": "address",
              "name": "addedBy",
              "type": "address"
            },
            {
              "internalType": "bool",
              "name": "isRecalled",
              "type": "bool"
            },
            {
              "internalType": "string",
              "name": "recallReason",
              "type": "string"
            },
            {
              "internalType": "uint256",
              "name": "paymentSent",
              "type": "uint256"
            }
          ],
          "internalType": "struct TescoExpiryTracker.VegetableProduct[]",
          "name": "",
          "type": "tuple[]"
        }
      ],
      "stateMutability": "view",
      "type": "function",
      "constant": true
    },
    {
      "inputs": [],
      "name": "getExpiredProducts",
      "outputs": [
        {
          "components": [
            {
              "internalType": "uint256",
              "name": "id",
              "type": "uint256"
            },
            {
              "internalType": "string",
              "name": "productName",
              "type": "string"
            },
            {
              "internalType": "string",
              "name": "sku",
              "type": "string"
            },
            {
              "internalType": "string",
              "name": "batchNumber",
              "type": "string"
            },
            {
              "internalType": "string",
              "name": "category",
              "type": "string"
            },
            {
              "internalType": "string",
              "name": "supplier",
              "type": "string"
            },
            {
              "internalType": "address",
              "name": "supplierWallet",
              "type": "address"
            },
            {
              "internalType": "uint256",
              "name": "harvestDate",
              "type": "uint256"
            },
            {
              "internalType": "uint256",
              "name": "packagingDate",
              "type": "uint256"
            },
            {
              "internalType": "uint256",
              "name": "expiryDate",
              "type": "uint256"
            },
            {
              "internalType": "uint256",
              "name": "addedAt",
              "type": "uint256"
            },
            {
              "internalType": "address",
              "name": "addedBy",
              "type": "address"
            },
            {
              "internalType": "bool",
              "name": "isRecalled",
              "type": "bool"
            },
            {
              "internalType": "string",
              "name": "recallReason",
              "type": "string"
            },
            {
              "internalType": "uint256",
              "name": "paymentSent",
              "type": "uint256"
            }
          ],
          "internalType": "struct TescoExpiryTracker.VegetableProduct[]",
          "name": "",
          "type": "tuple[]"
        }
      ],
      "stateMutability": "view",
      "type": "function",
      "constant": true
    },
    {
      "inputs": [
        {
          "internalType": "string",
          "name": "_category",
          "type": "string"
        }
      ],
      "name": "getProductsByCategory",
      "outputs": [
        {
          "components": [
            {
              "internalType": "uint256",
              "name": "id",
              "type": "uint256"
            },
            {
              "internalType": "string",
              "name": "productName",
              "type": "string"
            },
            {
              "internalType": "string",
              "name": "sku",
              "type": "string"
            },
            {
              "internalType": "string",
              "name": "batchNumber",
              "type": "string"
            },
            {
              "internalType": "string",
              "name": "category",
              "type": "string"
            },
            {
              "internalType": "string",
              "name": "supplier",
              "type": "string"
            },
            {
              "internalType": "address",
              "name": "supplierWallet",
              "type": "address"
            },
            {
              "internalType": "uint256",
              "name": "harvestDate",
              "type": "uint256"
            },
            {
              "internalType": "uint256",
              "name": "packagingDate",
              "type": "uint256"
            },
            {
              "internalType": "uint256",
              "name": "expiryDate",
              "type": "uint256"
            },
            {
              "internalType": "uint256",
              "name": "addedAt",
              "type": "uint256"
            },
            {
              "internalType": "address",
              "name": "addedBy",
              "type": "address"
            },
            {
              "internalType": "bool",
              "name": "isRecalled",
              "type": "bool"
            },
            {
              "internalType": "string",
              "name": "recallReason",
              "type": "string"
            },
            {
              "internalType": "uint256",
              "name": "paymentSent",
              "type": "uint256"
            }
          ],
          "internalType": "struct TescoExpiryTracker.VegetableProduct[]",
          "name": "",
          "type": "tuple[]"
        }
      ],
      "stateMutability": "view",
      "type": "function",
      "constant": true
    },
    {
      "inputs": [],
      "name": "totalProducts",
      "outputs": [
        {
          "internalType": "uint256",
          "name": "",
          "type": "uint256"
        }
      ],
      "stateMutability": "view",
      "type": "function",
      "constant": true
    },
    {
      "inputs": [],
      "name": "totalAlerts",
      "outputs": [
        {
          "internalType": "uint256",
          "name": "",
          "type": "uint256"
        }
      ],
      "stateMutability": "view",
      "type": "function",
      "constant": true
    },
    {
      "inputs": [
        {
          "internalType": "uint256",
          "name": "_index",
          "type": "uint256"
        }
      ],
      "name": "getAlert",
      "outputs": [
        {
          "components": [
            {
              "internalType": "uint256",
              "name": "productId",
              "type": "uint256"
            },
            {
              "internalType": "string",
              "name": "alertType",
              "type": "string"
            },
            {
              "internalType": "string",
              "name": "message",
              "type": "string"
            },
            {
              "internalType": "uint256",
              "name": "raisedAt",
              "type": "uint256"
            },
            {
              "internalType": "address",
              "name": "raisedBy",
              "type": "address"
            }
          ],
          "internalType": "struct TescoExpiryTracker.StockAlert",
          "name": "",
          "type": "tuple"
        }
      ],
      "stateMutability": "view",
      "type": "function",
      "constant": true
    }
  ],
  "bytecode": "0x608080604052346100715766b1a2bc2ec50000600255600080546001600160a01b031916339081178255808252600560205260408220805460ff19166001179055907f25735489650b69d7ef21fff0932bcdb059081b845a76b64cb4580222dcdb9e529080a26128d090816100778239f35b600080fdfe60c06040526004361015610023575b361561001957600080fd5b61002161246d565b005b60003560e01c8063092ecfea14611e91578063155dd5ee14611e025780631dbcb5f014611d6f5780632859a6791461100257806328689bff14610fd05780633715b1cc14610e835780634f2b85db14610e655780636f9fb98a14610e4957806379f9331314610e1b5780637acc0b2014610cbd578063847deca614610c9f5780638508188614610b745780638c40144814610b465780638da5cb5b14610b1d5780638f38cc7b14610a675780639b9d326d14610a495780639ce0f9731461040b5780639d7bd557146103c4578063abb8c02414610313578063b9db15b4146102a8578063bd097e2114610287578063cff034e914610269578063dde1bbcf14610232578063e8b214f41461017f5763fd4f0b410361000e573461017a57602036600319011261017a576001600160a01b0361015c612380565b166000526005602052602060ff604060002054166040519015158152f35b600080fd5b3461017a57602036600319011261017a57610198612380565b6000546001600160a01b03908116916101b233841461249b565b169081146101f757806000526005602052604060002060ff1981541690557f13a5b41de9e37f3db1adb5d827721bc5e8b0d4f18ccd69e721364495031fdfef600080a2005b60405162461bcd60e51b815260206004820152601360248201527221b0b73737ba103932bb37b5b29037bbb732b960691b6044820152606490fd5b3461017a57602036600319011261017a5760043560085481101561017a5761025b60209161241e565b90546040519160031b1c8152f35b3461017a57600036600319011261017a576020600254604051908152f35b600036600319011261017a5761001960018060a01b0360005416331461249b565b3461017a57602036600319011261017a576004356102c4612609565b5080151580610307575b6102d7906125c4565b60005260046020526103036102ef6040600020612678565b604051918291602083526020830190612043565b0390f35b506001548111156102ce565b3461017a57602036600319011261017a5761032c612380565b6000546001600160a01b039190610346908316331461249b565b16801561038d578060005260056020526040600020600160ff198254161790557f25735489650b69d7ef21fff0932bcdb059081b845a76b64cb4580222dcdb9e52600080a2005b60405162461bcd60e51b815260206004820152600f60248201526e496e76616c6964206164647265737360881b6044820152606490fd5b3461017a5760206103ec6103d7366123dc565b92908160405193828580945193849201611ffb565b81016007815203019020805482101561017a5760209161025b91612455565b3461017a57604036600319011261017a57602480356001600160401b03811161017a5761043c903690600401612353565b9033600052600560205260ff604060002054168015610a35575b61045f906124d3565b600435151580610a27575b610473906125c4565b600435600052600460205260ff600b6040600020015460a01c166109f05781156109ba576004356000526004602052600c6040600020600b8101600160a01b60ff60a01b1982541617905501926001600160401b038311610805576104e2836104dc86546121e5565b8661252c565b600093601f841160011461095257838095600095949591610947575b508360011b906000198560031b1c19161790555b6004356000526004602052600160406000200160405194859160009080549061053a826121e5565b916001811690811561092057506001146108d5575b505091600b91836a0103932b1b0b63632b21d160ad1b6105869552818885830137016000838201520360141981018752018561228c565b604051906105938261223b565b6004358252604051906105a582612271565b6008825267149150d05313115160c21b60208301526020830191825260408301868152426060850152336080850152600954600160401b8110156108c0578060016105f39201600955612194565b9390936108ab5784518455518051906001600160401b03821161089657819061062c8261062360018901546121e5565b6001890161252c565b602090601f831160011461082457600092610819575b50508160011b916000199060031b1c19161760018401555b518051916001600160401b03831161080557506106878261067e60028601546121e5565b6002860161252c565b602090601f831160011461079257600493929160009183610787575b50508160011b916000199060031b1c19161760028201555b606083015160038201550190608060018060a01b03910151166bffffffffffffffffffffffff60a01b8254161790557fa4c4d778eaf104e159e8bdc3bd40cee2e8f1ed15bdfc6e4234985d98c62589ca604051602081528061072633956004359560208401916125a3565b0390a37fcac5d5737291c7475bc428f68532edf69dd9c213516ee284cde1d7f59f66b6e0604051604081526008604082015267149150d05313115160c21b6060820152608060208201528061078260043594608083019061201e565b0390a2005b0151905088806106a3565b906002840160005260206000209160005b601f19851681106107ed575091839160019360049695601f198116106107d4575b505050811b0160028201556106bb565b015160001960f88460031b161c191690558880806107c4565b919260206001819286850151815501940192016107a3565b634e487b7160e01b60009081526041600452fd5b015190508980610642565b9250600186016000526020600020906000935b601f198416851061087b576001945083601f19811610610862575b505050811b01600184015561065a565b015160001960f88460031b161c19169055898080610852565b81810151835560209485019460019093019290910190610837565b83634e487b7160e01b60005260416004526000fd5b82634e487b7160e01b60005260006004526000fd5b82634e487b7160e01b60005260416004526000fd5b9250925050600052848360206000206000905b8482106109035750919290915082016020018161058661054f565b600191935060209250805483858b010152019101849087926108e8565b60ff191660208088019190915283151590930286019092019250839150610586905061054f565b9050840135866104fe565b601f198416948160005260206000209060005b8781106109a2575085809796959610610988575b5050600183811b019055610512565b850135600019600386901b60f8161c191690558580610979565b90916020600181928589013581550193019101610965565b60405162461bcd60e51b815260206004820152600f818501526e1499585cdbdb881c995c5d5a5c9959608a1b6044820152606490fd5b60405162461bcd60e51b8152602060048201526010818501526f105b1c9958591e481c9958d85b1b195960821b6044820152606490fd5b50600154600435111561046a565b506000546001600160a01b03163314610456565b3461017a57600036600319011261017a576020600154604051908152f35b3461017a5760208060031936011261017a576004356001600160401b03811161017a57610a9982913690600401612353565b91908260405193849283378101600781520301902090815490610abb8261276f565b9260005b838110610ad457604051806103038782612132565b80610ae2610b189284612455565b90549060031b1c60005260048452610afd6040600020612678565b610b0782886127cc565b52610b1281876127cc565b50612510565b610abf565b3461017a57600036600319011261017a576000546040516001600160a01b039091168152602090f35b3461017a57604036600319011261017a57610303610b686024356004356127e0565b60405191829182612132565b3461017a5760208060031936011261017a5760043560006080604051610b998161223b565b828152606085820152606060408201528260608201520152600954811015610c6a57610bc490612194565b5060405190610bd28261223b565b805482526004610be4600183016122ad565b848401908152610c58610bf9600285016122ad565b60408601908152610c456003860154956060880196875260018060a01b039586910154169360808801948552604051988998818a5251908901525160a0604089015260c088019061201e565b9051868203601f1901606088015261201e565b92516080850152511660a08301520390f35b60405162461bcd60e51b815260048101839052600d60248201526c4f7574206f6620626f756e647360981b6044820152606490fd5b3461017a57600036600319011261017a576020600354604051908152f35b3461017a57602036600319011261017a5760043560005260046020526040600020805460018201610ced906122ad565b91610cfa600282016122ad565b90610d07600382016122ad565b610d13600483016122ad565b90610d20600584016122ad565b91600160a01b60019003600685015416926007850154600886015490600987015492600a88015494600b89015496600c8a01610d5b906122ad565b99600d01549a6040519d8e9d8e528d6101e09081602082015201610d7e9161201e565b8d810360408f0152610d8f9161201e565b8c810360608e0152610da09161201e565b8b810360808d0152610db19161201e565b8a810360a08c0152610dc29161201e565b9560c08a015260e0890152610100880152610120870152610140860152600160a01b60019003811661016086015260a01c60ff1615156101808501528381036101a0850152610e109161201e565b906101c08301520390f35b3461017a57602036600319011261017a57610e4160018060a01b0360005416331461249b565b600435600255005b3461017a57600036600319011261017a57602047604051908152f35b3461017a57600036600319011261017a576020600954604051908152f35b3461017a57600036600319011261017a576008546000805b828110610f4d5750610eac9061276f565b906000805b828210610ec657604051806103038682612132565b610ecf8261241e565b90549060031b1c600052600460205260406000209160ff600b84015460a01c161580610f40575b610f0c575b610f06919250612510565b90610eb1565b610f3782610f26610f20610f069592612510565b95612678565b610f3082896127cc565b52866127cc565b50829150610efb565b5060098301544211610ef6565b610f568161241e565b9054600391821b1c60005260206004815260ff600b6040600020015460a01c16159182610fa8575b5050610f93575b610f8e90612510565b610e9b565b90610fa0610f8e91612510565b919050610f85565b60049250610fb58461241e565b9054911b1c6000525260096040600020015442118480610f7e565b3461017a576020610fe36103d7366123dc565b81016006815203019020805482101561017a5760209161025b91612455565b3461017a5761012036600319011261017a576004356001600160401b03811161017a57611033903690600401612353565b906024356001600160401b03811161017a57611053903690600401612353565b6044929192356001600160401b03811161017a57611075903690600401612353565b93906064356001600160401b03811161017a57611096903690600401612353565b90916084356001600160401b03811161017a576110b7903690600401612353565b979060a05260a4358060805260018060a01b0381160361017a5733600052600560205260ff604060002054168015611d5b575b6110f3906124d3565b8815611d1e578515611cea5761110a600154612510565b97889283600155600092898c6002548015801580611cd6575b80611ccc575b611c25575b50509161115461118f959492611170946040519961114b8b61221f565b8a523691612396565b6020880152611164368c8c612396565b60408801523691612396565b6060850152611180368688612396565b6080850152369060a051612396565b60a08301526080516001600160a01b031660c083015260c43560e083015260e43561010083015261010435610120830152426101408301523361016083015260006101808301526040516111e281612256565b600081526101a08301526101c08201528660005260046020526040600020908051825560208101518051906001600160401b0382116118805781906112378261122e60018801546121e5565b6001880161252c565b602090601f8311600114611bb357600092611ba8575b50508160011b916000199060031b1c19161760018301555b60408101518051906001600160401b0382116118805781906112978261128e60028801546121e5565b6002880161252c565b602090601f8311600114611b3657600092611b2b575b50508160011b916000199060031b1c19161760028301555b60608101518051906001600160401b0382116118805781906112f7826112ee60038801546121e5565b6003880161252c565b602090601f8311600114611ab957600092611aae575b50508160011b916000199060031b1c19161760038301555b60808101518051906001600160401b0382116118805781906113578261134e60048801546121e5565b6004880161252c565b602090601f8311600114611a3c57600092611a31575b50508160011b916000199060031b1c19161760048301555b60a08101518051906001600160401b0382116118805781906113b7826113ae60058801546121e5565b6005880161252c565b602090601f83116001146119bf576000926119b4575b50508160011b916000199060031b1c19161760058301555b60c08101516006830180546001600160a01b039283166001600160a01b031990911617905560e0820151600784015561010082015160088401556101208201516009840155610140820151600a840155610160820151600b8401805461018085015160ff60a01b90151560a01b16929093166001600160a81b0319909316929092171790556101a08101518051906001600160401b0382116118805761149b82611492600c8701546121e5565b600c870161252c565b602090601f831160011461193e579180600d94926101c094600092611933575b50508160011b916000199060031b1c191617600c8501555b015191015560085492600160401b841015611880576115788761159c9360207fffed2a30aabbaef379429a9bcd823ae1a613502b5e867747d60313ab0d8388ee96611542846115298b6001839d0160085561241e565b90919082549060031b91821b91600019901b1916179055565b611560848b846040518281938c833781016006815203019020612580565b82604051938492833781016007815203019020612580565b604051946060865261158e606087018a896125a3565b9186830360208801526125a3565b926101043560408201528033940390a36203f4804201421161191d576203f48042016101043511156115d4575b602082604051908152f35b603761161c9184604051958692602084013781017f20657870697265732077697468696e2033206461797321000000000000000000602082015203601781018552018361228c565b6040516116288161223b565b8181526040519261163884612271565b600d84526c22ac2824a924a723afa9a7a7a760991b602085015260208201938452806040830152426060830152336080830152600954600160401b8110156118805780600161168a9201600955612194565b94909461190757825185555180516001600160401b038111611880578060018701926116ba826104dc86546121e5565b602090601f83116001146118a157600092611896575b50508160011b916000199060031b1c19161790555b6040820151918251946001600160401b0386116118805785859461171260209861067e60028601546121e5565b8790601f83116001146117e65792826117d295936004937fcac5d5737291c7475bc428f68532edf69dd9c213516ee284cde1d7f59f66b6e098966000926117db575b50508160011b916000199060031b1c19161760028201555b606083015160038201550190608060018060a01b03910151166bffffffffffffffffffffffff60a01b82541617905560405191829160408352600d60408401526c22ac2824a924a723afa9a7a7a760991b6060840152608088840152608083019061201e565b0390a2826115c9565b015190508b80611754565b9060028401600052886000209160005b601f19851681106118665750836004937fcac5d5737291c7475bc428f68532edf69dd9c213516ee284cde1d7f59f66b6e09896936001936117d29997601f1981161061184d575b505050811b01600282015561176c565b015160001960f88460031b161c191690558b808061183d565b818301518455899850600190930192918a01918a016117f6565b634e487b7160e01b600052604160045260246000fd5b0151905087806116d0565b6000858152602081209350601f198516905b8181106118ef57509084600195949392106118d6575b505050811b0190556116e5565b015160001960f88460031b161c191690558780806118c9565b929360206001819287860151815501950193016118b3565b634e487b7160e01b600052600060045260246000fd5b634e487b7160e01b600052601160045260246000fd5b015190508d806114bb565b90600c850160005260206000209160005b601f198516811061199c575092600d94926001926101c09583601f19811610611983575b505050811b01600c8501556114d3565b015160001960f88460031b161c191690558d8080611973565b9192602060018192868501518155019401920161194f565b015190508b806113cd565b9250600585016000526020600020906000935b601f1984168510611a16576001945083601f198116106119fd575b505050811b0160058301556113e5565b015160001960f88460031b161c191690558b80806119ed565b818101518355602094850194600190930192909101906119d2565b015190508b8061136d565b9250600485016000526020600020906000935b601f1984168510611a93576001945083601f19811610611a7a575b505050811b016004830155611385565b015160001960f88460031b161c191690558b8080611a6a565b81810151835560209485019460019093019290910190611a4f565b015190508b8061130d565b9250600385016000526020600020906000935b601f1984168510611b10576001945083601f19811610611af7575b505050811b016003830155611325565b015160001960f88460031b161c191690558b8080611ae7565b81810151835560209485019460019093019290910190611acc565b015190508b806112ad565b9250600285016000526020600020906000935b601f1984168510611b8d576001945083601f19811610611b74575b505050811b0160028301556112c5565b015160001960f88460031b161c191690558b8080611b64565b81810151835560209485019460019093019290910190611b49565b015190508b8061124d565b9250600185016000526020600020906000935b601f1984168510611c0a576001945083601f19811610611bf1575b505050811b016001830155611265565b015160001960f88460031b161c191690558b8080611be1565b81810151835560209485019460019093019290910190611bc6565b600080969799508095985080945080935090611cc3575b6080516001600160a01b031690f115611cb757889261117061118f928c946111548c60025497611c6e8960035461251f565b6003556040518981526080516001600160a01b0316908b907ff9873114df9c44eac7e2eec289795b97e64b083657a8daa2dd429d0916e1ad3290602090a392945092949561112e565b6040513d6000823e3d90fd5b506108fc611c3c565b5081471015611129565b506080516001600160a01b03161515611123565b60405162461bcd60e51b815260206004820152600c60248201526b14d2d5481c995c5d5a5c995960a21b6044820152606490fd5b60405162461bcd60e51b8152602060048201526015602482015274141c9bd91d58dd081b985b59481c995c5d5a5c9959605a1b6044820152606490fd5b506000546001600160a01b031633146110ea565b3461017a57602036600319011261017a5760043560095481101561017a57611d9690612194565b508054611da5600183016122ad565b91611db2600282016122ad565b611df3600383015492600460018060a01b039101541691611de5604051968796875260a0602088015260a087019061201e565b90858203604087015261201e565b91606084015260808301520390f35b3461017a57602036600319011261017a57600054600435906001600160a01b0316611e2e33821461249b565b478211611e555760008080938193828215611e4c575bf115611cb757005b506108fc611e44565b60405162461bcd60e51b8152602060048201526014602482015273496e73756666696369656e742062616c616e636560601b6044820152606490fd5b3461017a5760208060031936011261017a57611eaf6004354261251f565b600854906000805b838110611f7c5750611ec89061276f565b9260009060005b848110611ee457604051806103038882612132565b611eed8161241e565b90549060031b1c60005260048252604060002060ff600b82015460a01c161580611f6e575b80611f60575b611f2c575b50611f2790612510565b611ecf565b9290611f5982611f48611f42611f279592612510565b96612678565b611f52828b6127cc565b52886127cc565b5090611f1d565b508460098201541115611f18565b504260098201541015611f12565b611f858161241e565b90549060031b1c6000526004855260406000208360ff600b83015460a01c16159182611feb575b82611fdc575b5050611fc7575b611fc290612510565b611eb7565b90611fd4611fc291612510565b919050611fb9565b60090154111590508387611fb2565b9150426009830154101591611fac565b60005b83811061200e5750506000910152565b8181015183820152602001611ffe565b9060209161203781518092818552858086019101611ffb565b601f01601f1916010190565b90815181526121246120b86120a661209461208261207060208801516101e08060208a015288019061201e565b6040880151878203604089015261201e565b6060870151868203606088015261201e565b6080860151858203608087015261201e565b60a085015184820360a086015261201e565b60018060a01b038060c08601511660c085015260e085015160e085015261010080860151908501526101208086015190850152610140808601519085015261016090818601511690840152610180808501511515908401526101a080850151908483039085015261201e565b916101c08091015191015290565b602080820190808352835180925260408301928160408460051b8301019501936000915b8483106121665750505050505090565b9091929394958480612184600193603f198682030187528a51612043565b9801930193019194939290612156565b6009548110156121cf576005906009600052027f6e1540171b6c0c960b71a7020d9f60077f6af931a8bbf590da0223dacf75c7af0190600090565b634e487b7160e01b600052603260045260246000fd5b90600182811c92168015612215575b60208310146121ff57565b634e487b7160e01b600052602260045260246000fd5b91607f16916121f4565b6101e081019081106001600160401b0382111761188057604052565b60a081019081106001600160401b0382111761188057604052565b602081019081106001600160401b0382111761188057604052565b604081019081106001600160401b0382111761188057604052565b90601f801991011681019081106001600160401b0382111761188057604052565b90604051918260008254926122c1846121e5565b90818452600194858116908160001461233057506001146122ed575b50506122eb9250038361228c565b565b9093915060005260209081600020936000915b8183106123185750506122eb935082010138806122dd565b85548884018501529485019487945091830191612300565b9150506122eb94506020925060ff191682840152151560051b82010138806122dd565b9181601f8401121561017a578235916001600160401b03831161017a576020838186019501011161017a57565b600435906001600160a01b038216820361017a57565b9291926001600160401b03821161188057604051916123bf601f8201601f19166020018461228c565b82948184528183011161017a578281602093846000960137010152565b604060031982011261017a57600435906001600160401b03821161017a578060238301121561017a5781602461241793600401359101612396565b9060243590565b6008548110156121cf5760086000527ff3f7a9fe364faab93b216da50a3214154f22a0a2b415b23a84c8169e8b636ee30190600090565b80548210156121cf5760005260206000200190600090565b6040513481527f0939f6f4877faf071412e527bc4c6d0bd65ad077e52b57334f7765265647a7f160203392a2565b156124a257565b60405162461bcd60e51b81526020600482015260096024820152682737ba1037bbb732b960b91b6044820152606490fd5b156124da57565b60405162461bcd60e51b815260206004820152600e60248201526d139bdd08185d5d1a1bdc9a5cd95960921b6044820152606490fd5b600019811461191d5760010190565b9190820180921161191d57565b90601f811161253a57505050565b600091825260208220906020601f850160051c83019410612576575b601f0160051c01915b82811061256b57505050565b81815560010161255f565b9092508290612556565b90815491600160401b83101561188057826115299160016122eb95018155612455565b908060209392818452848401376000828201840152601f01601f1916010190565b156125cb57565b60405162461bcd60e51b8152602060048201526016602482015275141c9bd91d58dd08191bd95cc81b9bdd08195e1a5cdd60521b6044820152606490fd5b604051906126168261221f565b816101c0600091828152606080602083015280604083015280808301528060808301528060a08301528360c08301528360e083015283610100830152836101208301528361014083015283610160830152836101808301526101a08201520152565b906040516126858161221f565b6101c0600d82948054845261269c600182016122ad565b60208501526126ad600282016122ad565b60408501526126be600382016122ad565b60608501526126cf600482016122ad565b60808501526126e0600582016122ad565b60a085015260ff60018060a01b038060068401541660c0870152600783015460e087015260088301546101008701526009830154610120870152600a830154610140870152600b83015490811661016087015260a01c16151561018085015261274b600c82016122ad565b6101a08501520154910152565b6001600160401b0381116118805760051b60200190565b9061277982612758565b612786604051918261228c565b8281528092612797601f1991612758565b019060005b8281106127a857505050565b6020906127b3612609565b8282850101520161279c565b9190820391821161191d57565b80518210156121cf5760209160051b010190565b6008548082101561288457806127f6848461251f565b11926000936000146128735750905b61281761281282846127bf565b61276f565b92815b838110612828575050505090565b8061283561286e9261241e565b90549060031b1c83526004602052610b126040842061285d61285787856127bf565b91612678565b612867828a6127cc565b52876127cc565b61281a565b61287e91508261251f565b90612805565b50505060405161289381612256565b600081529056fea26469706673582212209bd060509899164b0ca80d0fbd397de1150da630b98fff01a04861f250f8b8c464736f6c63430008130033",
  "immutableReferences": {},
  "source": "// SPDX-License-Identifier: MIT\npragma solidity ^0.8.19;\n\ncontract TescoExpiryTracker {\n\n    struct VegetableProduct {\n        uint256 id;\n        string productName;\n        string sku;\n        string batchNumber;\n        string category;\n        string supplier;\n        address supplierWallet;\n        uint256 harvestDate;\n        uint256 packagingDate;\n        uint256 expiryDate;\n        uint256 addedAt;\n        address addedBy;\n        bool isRecalled;\n        string recallReason;\n        uint256 paymentSent;\n    }\n\n    struct StockAlert {\n        uint256 productId;\n        string alertType;\n        string message;\n        uint256 raisedAt;\n        address raisedBy;\n    }\n\n    address public owner;\n    uint256 private _productCounter;\n    uint256 public paymentPerBatch = 0.05 ether;\n    uint256 public totalPaidToSuppliers;\n\n    mapping(uint256 => VegetableProduct) public products;\n    mapping(address => bool) public authorisedStaff;\n    mapping(string => uint256[]) public skuToProductIds;\n    mapping(string => uint256[]) public categoryToProductIds;\n    uint256[] public allProductIds;\n    StockAlert[] public stockAlerts;\n\n    event ProductAdded(uint256 indexed id, string productName, string sku, uint256 expiryDate, address indexed addedBy);\n    event ProductRecalled(uint256 indexed id, string reason, address indexed recalledBy);\n    event StaffAuthorised(address indexed staff);\n    event StaffRevoked(address indexed staff);\n    event StockAlertRaised(uint256 indexed productId, string alertType, string message);\n    event SupplierPaid(uint256 indexed productId, address indexed supplierWallet, uint256 amount);\n    event ContractFunded(address indexed by, uint256 amount);\n\n    modifier onlyOwner() { require(msg.sender == owner, \"Not owner\"); _; }\n    modifier onlyAuthorised() { require(authorisedStaff[msg.sender] || msg.sender == owner, \"Not authorised\"); _; }\n    modifier validProduct(uint256 _id) { require(_id > 0 && _id <= _productCounter, \"Product does not exist\"); _; }\n\n    constructor() {\n        owner = msg.sender;\n        authorisedStaff[msg.sender] = true;\n        emit StaffAuthorised(msg.sender);\n    }\n\n    receive() external payable {\n        emit ContractFunded(msg.sender, msg.value);\n    }\n\n    function fundContract() external payable onlyOwner {\n        emit ContractFunded(msg.sender, msg.value);\n    }\n\n    function setPaymentPerBatch(uint256 _amount) external onlyOwner {\n        paymentPerBatch = _amount;\n    }\n\n    function withdrawFunds(uint256 _amount) external onlyOwner {\n        require(_amount <= address(this).balance, \"Insufficient balance\");\n        payable(owner).transfer(_amount);\n    }\n\n    function getContractBalance() external view returns (uint256) {\n        return address(this).balance;\n    }\n\n    function authoriseStaff(address _staff) external onlyOwner {\n        require(_staff != address(0), \"Invalid address\");\n        authorisedStaff[_staff] = true;\n        emit StaffAuthorised(_staff);\n    }\n\n    function revokeStaff(address _staff) external onlyOwner {\n        require(_staff != owner, \"Cannot revoke owner\");\n        authorisedStaff[_staff] = false;\n        emit StaffRevoked(_staff);\n    }\n\n    function addProduct(\n        string calldata _productName,\n        string calldata _sku,\n        string calldata _batchNumber,\n        string calldata _category,\n        string calldata _supplier,\n        address _supplierWallet,\n        uint256 _harvestDate,\n        uint256 _packagingDate,\n        uint256 _expiryDate\n    ) external onlyAuthorised returns (uint256 id) {\n        require(bytes(_productName).length > 0, \"Product name required\");\n        require(bytes(_sku).length > 0, \"SKU required\");\n\n        _productCounter++;\n        id = _productCounter;\n\n        uint256 paid = 0;\n        if (paymentPerBatch > 0 && _supplierWallet != address(0) && address(this).balance >= paymentPerBatch) {\n            payable(_supplierWallet).transfer(paymentPerBatch);\n            totalPaidToSuppliers += paymentPerBatch;\n            paid = paymentPerBatch;\n            emit SupplierPaid(id, _supplierWallet, paymentPerBatch);\n        }\n\n        products[id] = VegetableProduct({\n            id: id, productName: _productName, sku: _sku,\n            batchNumber: _batchNumber, category: _category, supplier: _supplier,\n            supplierWallet: _supplierWallet,\n            harvestDate: _harvestDate, packagingDate: _packagingDate,\n            expiryDate: _expiryDate, addedAt: block.timestamp,\n            addedBy: msg.sender, isRecalled: false, recallReason: \"\",\n            paymentSent: paid\n        });\n\n        allProductIds.push(id);\n        skuToProductIds[_sku].push(id);\n        categoryToProductIds[_category].push(id);\n        emit ProductAdded(id, _productName, _sku, _expiryDate, msg.sender);\n\n        if (_expiryDate <= block.timestamp + 3 days) {\n            string memory alertMsg = string(abi.encodePacked(_productName, \" expires within 3 days!\"));\n            stockAlerts.push(StockAlert(id, \"EXPIRING_SOON\", alertMsg, block.timestamp, msg.sender));\n            emit StockAlertRaised(id, \"EXPIRING_SOON\", alertMsg);\n        }\n        return id;\n    }\n\n    function recallProduct(uint256 _id, string calldata _reason) external onlyAuthorised validProduct(_id) {\n        require(!products[_id].isRecalled, \"Already recalled\");\n        require(bytes(_reason).length > 0, \"Reason required\");\n        products[_id].isRecalled = true;\n        products[_id].recallReason = _reason;\n        string memory alertMsg = string(abi.encodePacked(products[_id].productName, \" recalled: \", _reason));\n        stockAlerts.push(StockAlert(_id, \"RECALLED\", alertMsg, block.timestamp, msg.sender));\n        emit ProductRecalled(_id, _reason, msg.sender);\n        emit StockAlertRaised(_id, \"RECALLED\", alertMsg);\n    }\n\n    function getProduct(uint256 _id) external view validProduct(_id) returns (VegetableProduct memory) { return products[_id]; }\n\n    function getProducts(uint256 _from, uint256 _count) external view returns (VegetableProduct[] memory) {\n        uint256 total = allProductIds.length;\n        if (_from >= total) return new VegetableProduct[](0);\n        uint256 end = _from + _count > total ? total : _from + _count;\n        VegetableProduct[] memory result = new VegetableProduct[](end - _from);\n        for (uint256 i = _from; i < end; i++) result[i - _from] = products[allProductIds[i]];\n        return result;\n    }\n\n    function getProductsExpiringSoon(uint256 _withinSeconds) external view returns (VegetableProduct[] memory) {\n        uint256 deadline = block.timestamp + _withinSeconds;\n        uint256 count = 0;\n        for (uint256 i = 0; i < allProductIds.length; i++) {\n            VegetableProduct storage p = products[allProductIds[i]];\n            if (!p.isRecalled && p.expiryDate >= block.timestamp && p.expiryDate <= deadline) count++;\n        }\n        VegetableProduct[] memory result = new VegetableProduct[](count);\n        uint256 j = 0;\n        for (uint256 i = 0; i < allProductIds.length; i++) {\n            VegetableProduct storage p = products[allProductIds[i]];\n            if (!p.isRecalled && p.expiryDate >= block.timestamp && p.expiryDate <= deadline) result[j++] = p;\n        }\n        return result;\n    }\n\n    function getExpiredProducts() external view returns (VegetableProduct[] memory) {\n        uint256 count = 0;\n        for (uint256 i = 0; i < allProductIds.length; i++)\n            if (!products[allProductIds[i]].isRecalled && products[allProductIds[i]].expiryDate < block.timestamp) count++;\n        VegetableProduct[] memory result = new VegetableProduct[](count);\n        uint256 j = 0;\n        for (uint256 i = 0; i < allProductIds.length; i++) {\n            VegetableProduct storage p = products[allProductIds[i]];\n            if (!p.isRecalled && p.expiryDate < block.timestamp) result[j++] = p;\n        }\n        return result;\n    }\n\n    function getProductsByCategory(string calldata _category) external view returns (VegetableProduct[] memory) {\n        uint256[] storage ids = categoryToProductIds[_category];\n        VegetableProduct[] memory result = new VegetableProduct[](ids.length);\n        for (uint256 i = 0; i < ids.length; i++) result[i] = products[ids[i]];\n        return result;\n    }\n\n    function totalProducts() external view returns (uint256) { return _productCounter; }\n    function totalAlerts() external view returns (uint256) { return stockAlerts.length; }\n    function getAlert(uint256 _index) external view returns (StockAlert memory) {\n        require(_index < stockAlerts.length, \"Out of bounds\");\n        return stockAlerts[_index];\n    }\n}\n",
  "sourcePath": "/workspaces/tesco-vegetable-expirery-tracker/contracts/TescoExpiryTracker.sol",
  "compiler": {
    "name": "solc",
    "version": "0.8.19+commit.7dd6d404.Emscripten.clang"
  },
  "schemaVersion": "3.4.16",
  "updatedAt": "2026-04-23T10:10:23.175Z",
  "networkType": "ethereum",
  "devdoc": {
    "kind": "dev",
    "methods": {},
    "version": 1
  },
  "userdoc": {
    "kind": "user",
    "methods": {},
    "version": 1
  }
}